:100000000C9438000C944D000C944D000C944D0051
:100010000C944D000C944D000C944D000C944D002C
:100020000C944D000C944D000C944D000C944D001C
:100030000C944D000C944D000C944D000C944D000C
:100040000C944D000C944D000C944D000C944D00FC
:100050000C944D00BC03DD03BF03D703C203C503EB
:10006000C803D703CB03CE03D103D703D703D403ED
:1000700011241FBECFE5D8E0DEBFCDBF11E0A0E662
:10008000B0E0E2E8F5E102C005900D92A030B107C2
:10009000D9F70E948D050C94BF0A0C94000082BB16
:1000A0008FEF81BB089511BA80B30895000000005E
:1000B00000000895882321F088B3816088BB03C0C5
:1000C00088B38E7F88BB88B3826088BB0E94530050
:1000D00088B3846088BB0E9456000E94530098B386
:1000E0009B7F98BB0895662321F098B3916098BBDD
:1000F00003C098B39E7F98BB98B39D7F98BB0E9426
:100100004F0088B3846088BB0E94560088B38B7F01
:1001100088BB0895CF93DF93C82FD62F80E00E942D
:100120005A008823DCF36D2F8C2F0E947300DF911F
:10013000CF91089523E023BF09C083E882BF88B729
:10014000816088BF08B600FEFDCFC9019C01215027
:100150003109892B91F713BE089522E023BF09C00E
:100160008EEF82BF88B7816088BF08B600FEFDCFE2
:10017000C9019C0121503109892B91F713BE0895C3
:1001800087B3816087BB87B3826087BB87B3846096
:1001900087BB80E190E00E949A0060E080E30E94CB
:1001A000730085E090E00E949A0060E080E30E9486
:1001B000730081E090E00E949A0060E08CE30E946E
:1001C0008A0060E08CE00E948A0060E086E00E9485
:1001D0008A0060E081E00E948A00089560E081E08A
:1001E0000E948A000895CF93DF93C62F98E2899FDB
:1001F000C00D112460E082E00E948A0005C060E02A
:1002000084E10E948A00CD2FDFEFDC0FC111F7CF10
:10021000DF91CF910895CF93DF93FC0104C061E09B
:100220000E948A00FE01EF01219680818111F7CFA3
:10023000DF91CF910895FC0180E190E0918380836C
:100240008EE190E093838283958384831782168264
:100250000895FC0180E190E0918380838EE190E03D
:100260009383828383E290E095838483178216824E
:100270000895FC01248135812F5F3F4F358324830E
:100280002C333105A1F41582148282819381019669
:1002900093838283CC9759F4138212828081918157
:1002A000019691838083489711F4118210820895FA
:1002B0000F931F93CF93DF93CDB7DEB72E970FB673
:1002C000F894DEBF0FBECDBF8C0160E080E00E94DD
:1002D000F300F80185818F9384818F9383818F93BD
:1002E00082818F9381818F9380818F938CE690E0C0
:1002F0009F938F938E010F5F1F4F1F930F930E9449
:10030000D507C8010E940B010FB6F894DEBF0FBEDF
:10031000CDBF2E960FB6F894DEBF0FBECDBFDF91D6
:10032000CF911F910F9108950F931F93CF93DF9358
:10033000CDB7DEB72E970FB6F894DEBF0FBECDBF98
:100340008C0160E080E00E94F300F80185818F93CA
:1003500084818F9383818F9382818F9381818F9307
:1003600080818F938EE790E09F938F938E010F5F34
:100370001F4F1F930F930E94D507C8010E940B01C6
:100380000FB6F894DEBF0FBECDBF2E960FB6F89411
:10039000DEBF0FBECDBFDF91CF911F910F910895AA
:1003A0000E94940108950E9458010895F9019183D3
:1003B000808373836283558344830895CF93DF934F
:1003C000CDB7DEB762970FB6F894DEBF0FBECDBFD4
:1003D00060E080E00E94F3008EE0E0E9F0E0DE0102
:1003E000119601900D928A95E1F7CE0101960E9437
:1003F0000B0162960FB6F894DEBF0FBECDBFDF9142
:10040000CF910895CF92DF92EF92FF920F931F93B7
:10041000CF93DF93CDB7DEB764970FB6F894DEBF06
:100420000FBECDBF182F092FF62EE72ED42EC52EC6
:1004300060E081E00E94F300CF92DF92EF92FF92A2
:100440000F931F938EE990E09F938F938E010F5F20
:100450001F4F1F930F930E94D507C8010E940B01E5
:100460000FB6F894DEBF0FBECDBF64960FB6F894FA
:10047000DEBF0FBECDBFDF91CF911F910F91FF90D7
:10048000EF90DF90CF900895CF93DF93CDB7DEB795
:1004900063970FB6F894DEBF0FBECDBF60E080E07B
:1004A0000E94F3008BE0E1EBF0E0DE011196019099
:1004B0000D928A95E1F7CE0101960E940B0160E052
:1004C00081E00E94F30088E0ECEBF0E0DE011C9696
:1004D00001900D928A95E1F7CE010C960E940B01D6
:1004E00063960FB6F894DEBF0FBECDBFDF91CF91FC
:1004F00008950F931F936230710561F13CF461150B
:10050000710569F061307105E9F059C06430710519
:10051000E1F19CF16530710509F44AC050C09C01BD
:10052000220F331F880F991F880F991F880F991F5B
:10053000820F931FFA0120813181820F931F9183D3
:1005400080833DC0FA0120813181820F931F918306
:10055000808335C0AC01440F551F880F991F880F49
:10056000991F880F991F840F951FF90140815181B0
:10057000840F951F9183808322C0F90140815181AE
:10058000840F951F918380831AC09C01220F331F13
:10059000880F991F880F991F880F991F820F931F2B
:1005A000F80120813181820F931F9183808307C0DE
:1005B000F80120813181820F931F918380831F91E5
:1005C0000F9108958831910534F46C3371051CF452
:1005D0004C3351055CF00E94EE000E94440286E913
:1005E00090E00E949A0080E090E008950E94D60179
:1005F00081E090E00895CF93DF93CDB7DEB76497A5
:100600000FB6F894DEBF0FBECDBF60E080E00E9461
:10061000F3008BE0E4ECF0E0DE01119601900D9226
:100620008A95E1F7CE0101960E940B0160E081E01E
:100630000E94F30089E0EFECF0E0DE011C960190EF
:100640000D928A95E1F7CE010C960E940B016496FB
:100650000FB6F894DEBF0FBECDBFDF91CF910895E6
:10066000CF93DF93CDB7DEB72F970FB6F894DEBFE9
:100670000FBECDBF60E081E00E94F3008EE0E8EDA8
:10068000F0E0DE01119601900D928A95E1F7CE011E
:1006900001960E940B012F960FB6F894DEBF0FBE95
:1006A000CDBFDF91CF910895FC0140815181FB01C5
:1006B0002081318142175307A9F4FC014281538103
:1006C000FB01228133814217530779F4FC01248115
:1006D0003581FB01848195812817390749F080E035
:1006E00090E0089580E090E0089580E090E0089523
:1006F00081E090E008950F931F93CF93DF93CDB7E0
:10070000DEB72F970FB6F894DEBF0FBECDBF8C01BA
:1007100060E081E00E94F300F801808191810197FF
:1007200051F48CE0E6EEF0E0DE01119601900D92BE
:100730008A95E1F709C08DE0E2EFF0E0DE01119665
:1007400001900D928A95E1F7CE0101960E940B016E
:100750002F960FB6F894DEBF0FBECDBFDF91CF91BD
:100760001F910F910895FC013197EE30F105F8F4D7
:10077000E65DFF4F0C94CF0781E090E0089583E0A1
:1007800090E0089584E090E0089585E090E0089579
:1007900086E090E0089587E090E0089588E090E09A
:1007A000089589E090E0089580E090E0089518169B
:1007B000190634F48AE090E0089582E090E008950C
:1007C0008BE090E00895CF93DF9314BA15BA44B349
:1007D00021E030E0F90102C0EE0FFF1F8A95E2F739
:1007E000CF01842B84BB85B3EB0124960C2E02C071
:1007F000220F331F0A94E2F7282B25BB82E090E0FA
:100800000E949A0083B390E002C095958795CA959F
:10081000E2F780FD03C081E090E002C080E090E05C
:10082000DF91CF9108950F931F93CF93DF9300E053
:1008300010E01EC0BE01C8010E94E303892B79F0BD
:10084000BE01C8010E94E303892BD1F7C801880FBC
:10085000991F880F991F8C0F9D1F01960EC021961E
:1008600002C0C0E0D0E0C430D10524F30F5F1F4FB9
:1008700004301105B4F380E090E0DF91CF911F9137
:100880000F9108954F925F926F927F928F929F92F5
:10089000AF92BF92CF92DF92EF92FF920F931F938E
:1008A000CF93DF934B015C0129013A0187B3886044
:1008B00087BBA5019401C501B4010E94C0056B016D
:1008C0007C01C301B2010E94D60620E030E040E284
:1008D00050E40E94620720916800309169004091C5
:1008E0006A0050916B000E946207A70196010E9466
:1008F0002C060E949E068B01C0E0D0E013C088B396
:10090000886088BBC501B4010E94A5066B017C010B
:10091000CB010E94AD0088B3877F88BBC6010E94CF
:10092000AD002196C017D10754F3DF91CF911F91ED
:100930000F91FF90EF90DF90CF90BF90AF909F907E
:100940008F907F906F905F904F900895EF92FF92FD
:100950000F931F93CF93DF93EC017B018A010E94D9
:10096000EE00C8010E947B03CE010E94D30187E5FF
:1009700090E00E949A00CE010E943901B701CE0199
:100980000E945403892B89F1F8018081918101979C
:1009900061F50E941304089721F4F8011182108276
:1009A00024C00E94EE00CE010E94D30187E590E0B2
:1009B0000E949A000E943003CE010E943901CE01AC
:1009C0000E94D0012091600030916100409162004E
:1009D00050916300609164007091650080916600A1
:1009E000909167000E944204D4CFCE010E94D001B2
:1009F000DF91CF911F910F91FF90EF9008958F920B
:100A00009F92AF92BF92CF92DF92EF92FF920F939D
:100A10001F93CF93DF9300D000D000D0CDB7DEB7C7
:100A2000049709F067C059016A011E821D821C8269
:100A30001B821A8219820E94EE0089E190E00E94D6
:100A40009A00812C912CE12CF12C3BC00E94DE01FC
:100A500049815A816B817C818D819E810E94020235
:100A600087E590E00E949A000E94EE000E94DE015D
:100A700085E090E00E949A000E9413040E94B30354
:100A80008A30910594F48E010F5F1F4F9E012D5FF8
:100A90003F4FAE014B5F5F4FB7010E9479020E944A
:100AA000EE008FEFE81AF80A0CC00A9751F40E9482
:100AB000EE0088248394912C0F2EF6E0EF2EF12C7B
:100AC000F02DE6E0EE16F1040CF2892819F00E94F0
:100AD000FB0210C049815A816B817C8196018D8116
:100AE0009E810E94E202892B29F081E090E0F501CD
:100AF0009183808326960FB6F894DEBF0FBECDBFDC
:100B0000DF91CF911F910F91FF90EF90DF90CF90E9
:100B1000BF90AF909F908F900895CF93DF93CDB704
:100B2000DEB762970FB6F894DEBF0FBECDBF1A8A4C
:100B3000198A0E94C000CE0101960E941B01CE01BD
:100B400009960E9429010E9413041816190664F4DC
:100B50009E012F5E3F4FAE01475F5F4FBE016F5F4B
:100B60007F4F0E94FF04EFCFAE014F5E5F4FBE018B
:100B7000675F7F4FCE0101960E94A604E4CF5058D4
:100B8000BB27AA270E94D7050C9428070E941A07A2
:100B900038F00E94210720F039F49F3F19F426F421
:100BA0000C9417070EF4E095E7FB0C941107E92F5E
:100BB0000E94390758F3BA1762077307840795072D
:100BC00020F079F4A6F50C945B070EF4E0950B2E5B
:100BD000BA2FA02D0B01B90190010C01CA01A0018F
:100BE0001124FF27591B99F0593F50F4503E68F1EA
:100BF0001A16F040A22F232F342F4427585FF3CF2B
:100C0000469537952795A795F0405395C9F77EF4FB
:100C10001F16BA0B620B730B840BBAF09150A1F044
:100C2000FF0FBB1F661F771F881FC2F70EC0BA0FCA
:100C3000621F731F841F48F4879577956795B79552
:100C4000F7959E3F08F0B0CF9395880F08F099274D
:100C5000EE0F9795879508950E9440060C942807FB
:100C60000E94210758F00E941A0740F029F45F3FC4
:100C700029F00C94110751110C945C070C94170780
:100C80000E94390768F39923B1F3552391F3951B1B
:100C9000550BBB27AA2762177307840738F09F5F9D
:100CA0005F4F220F331F441FAA1FA9F335D00E2E0A
:100CB0003AF0E0E832D091505040E695001CCAF777
:100CC0002BD0FE2F29D0660F771F881FBB1F26173A
:100CD00037074807AB07B0E809F0BB0B802DBF0111
:100CE000FF2793585F4F3AF09E3F510578F00C94E0
:100CF00011070C945C075F3FE4F3983ED4F38695AC
:100D000077956795B795F7959F5FC9F7880F911D00
:100D10009695879597F90895E1E0660F771F881FEC
:100D2000BB1F621773078407BA0720F0621B730B9F
:100D3000840BBA0BEE1F88F7E09508950E94A50674
:100D40006894B1110C945C0708950E94410788F0E3
:100D50009F5798F0B92F9927B751B0F0E1F0660F7F
:100D6000771F881F991F1AF0BA95C9F714C0B130C0
:100D700091F00E945B07B1E008950C945B07672F28
:100D8000782F8827B85F39F0B93FCCF386957795EF
:100D90006795B395D9F73EF49095809570956195D8
:100DA0007F4F8F4F9F4F0895E89409C097FB3EF403
:100DB00090958095709561957F4F8F4F9F4F9923A8
:100DC000A9F0F92F96E9BB279395F6958795779526
:100DD0006795B795F111F8CFFAF4BB0F11F460FFE6
:100DE0001BC06F5F7F4F8F4F9F4F16C0882311F03E
:100DF00096E911C0772321F09EE8872F762F05C052
:100E0000662371F096E8862F70E060E02AF09A95EC
:100E1000660F771F881FDAF7880F9695879597F9E1
:100E2000089597F99F6780E870E060E008959FEF6C
:100E300080EC089500240A94161617061806090671
:100E4000089500240A941216130614060506089540
:100E5000092E0394000C11F4882352F0BB0F40F4C8
:100E6000BF2B11F460FF04C06F5F7F4F8F4F9F4F08
:100E7000089557FD9058440F551F59F05F3F71F08A
:100E80004795880F97FB991F61F09F3F79F08795F1
:100E90000895121613061406551FF2CF4695F1DF7A
:100EA00008C0161617061806991FF1CF869571050A
:100EB000610508940895E894BB2766277727CB013E
:100EC00097F908950E9475070C9428070E941A0745
:100ED00038F00E94210720F0952311F00C9411079F
:100EE0000C94170711240C945C070E94390770F3C7
:100EF000959FC1F3950F50E0551F629FF001729FBF
:100F0000BB27F00DB11D639FAA27F00DB11DAA1FCD
:100F1000649F6627B00DA11D661F829F2227B00D1A
:100F2000A11D621F739FB00DA11D621F839FA00DA5
:100F3000611D221F749F3327A00D611D231F849FF5
:100F4000600D211D822F762F6A2F11249F5750404C
:100F50009AF0F1F088234AF0EE0FFF1FBB1F661FC7
:100F6000771F881F91505040A9F79E3F510580F090
:100F70000C9411070C945C075F3FE4F3983ED4F3A4
:100F8000869577956795B795F795E7959F5FC1F734
:100F9000FE2B880F911D9695879597F90895EE0F72
:100FA000FF1F0590F491E02D0994AEE0B0E0EBED69
:100FB000F7E00C94960A0D891E8986E08C831A83CB
:100FC00009838FEF9FE79E838D83AE01475E5F4F5E
:100FD0006F89788DCE0101960E94F707EF81F88521
:100FE000E00FF11F10822E96E4E00C94B20AABE001
:100FF000B0E0EDEFF7E00C94880A6C017B018A0108
:10100000FC0117821682838181FFCCC1CE0101963B
:101010003C01F6019381F70193FD859193FF819146
:101020007F01882309F4BAC1853239F493FD859193
:1010300093FF81917F01853229F4B60190E00E94EF
:10104000EE09E7CF912C212C312CFFE1F315D8F0DC
:101050008B3279F038F4803279F08332A1F4232D89
:1010600020611DC08D3261F0803369F4232D216031
:1010700016C0832D8260382EE32DE4603E2E2AC0F8
:10108000F32DF8601DC037FC2DC020ED280F2A304D
:1010900040F08E32B9F436FC81C1232D2064322E0B
:1010A00019C036FE06C08AE0989E200D1124922EAB
:1010B00011C0EAE02E9E200D1124222EF32DF062A5
:1010C0003F2E08C08C3621F4832D8068382E02C054
:1010D000883641F4F70193FD859193FF81917F015B
:1010E0008111B3CF982F9F7D9554933028F40C5FD6
:1010F0001F4F9FE399830DC0833631F0833771F022
:10110000833509F059C021C0F801808189830E5FC1
:101110001F4F88248394912C530113C02801F2E0BF
:101120004F0E511CF801A080B18036FE03C0692D1E
:1011300070E002C06FEF7FEFC5010E94E3094C0130
:101140008201F32DFF773F2E16C0280122E0420EC8
:10115000511CF801A080B18036FE03C0692D70E0FB
:1011600002C06FEF7FEFC5010E94D8094C01F32D3B
:10117000F0683F2E820133FC1BC0822D90E0881660
:101180009906B0F4B60180E290E00E94EE092A943C
:10119000F4CFF50137FC859137FE81915F01B601EF
:1011A00090E00E94EE0921102A9421E0821A910811
:1011B0008114910471F7E8C0843611F0893641F545
:1011C000F80137FE07C060817181828193810C5FD5
:1011D0001F4F08C060817181072E000C880B990B8E
:1011E0000E5F1F4FF32DFF763F2E97FF09C090959E
:1011F0008095709561957F4F8F4F9F4FF0683F2E80
:101200002AE030E0A3010E942A0A882E861845C0F1
:10121000853731F4232D2F7EB22E2AE030E025C011
:10122000932D997FB92E8F36C1F018F4883579F057
:10123000B5C0803719F0883721F0B0C0E92FE061E0
:10124000BE2EB4FE0DC0FB2DF460BF2E09C034FECF
:101250000AC0292F2660B22E06C028E030E005C063
:1012600020E130E002C020E132E0F801B7FE07C023
:1012700060817181828193810C5F1F4F06C0608104
:10128000718180E090E00E5F1F4FA3010E942A0A47
:10129000882E8618FB2DFF773F2E36FE0DC0232D9E
:1012A0002E7FA22E891458F434FE0BC032FC09C0E4
:1012B000832D8E7EA82E05C0B82CA32C03C0B82C7D
:1012C00001C0B92CA4FE0FC0FE01E80DF11D808104
:1012D000803321F49A2D997EA92E09C0A2FE06C062
:1012E000B394B39404C08A2D867809F0B394A3FC18
:1012F00011C0A0FE06C0B21488F4280C922C9B18D2
:101300000EC0B21460F4B60180E290E00E94EE09D3
:10131000B394F7CFB21418F42B1802C0982C212CD8
:10132000A4FE10C0B60180E390E00E94EE09A2FE88
:1013300017C0A1FC03C088E790E002C088E590E0F8
:10134000B6010CC08A2D867859F0A1FE02C08BE24E
:1013500001C080E2A7FC8DE2B60190E00E94EE0998
:10136000891438F4B60180E390E00E94EE099A9463
:10137000F7CF8A94F301E80DF11D8081B60190E06A
:101380000E94EE098110F5CF222009F442CEB60169
:1013900080E290E00E94EE092A94F6CFF601868161
:1013A000978102C08FEF9FEF2B96E2E10C94A40A85
:1013B000FC010590615070400110D8F78095909520
:1013C0008E0F9F1F0895FC01615070400190011025
:1013D000D8F7809590958E0F9F1F08950F931F93B8
:1013E000CF93DF93FB01238121FD03C08FEF9FEF9C
:1013F0002CC022FF16C046815781248135814217B7
:10140000530744F4A081B1819D012F5F3F4F318389
:1014100020838C93268137812F5F3F4F378326832C
:1014200014C08B01EC01FB010084F185E02D0995CE
:10143000892BE1F6D80116968D919C91179701960C
:1014400017969C938E931697CE01DF91CF911F91A3
:101450000F910895FA01AA27283051F1203181F126
:10146000E8946F936E7F6E5F7F4F8F4F9F4FAF4FAC
:10147000B1E03ED0B4E03CD0670F781F891F9A1FBF
:10148000A11D680F791F8A1F911DA11D6A0F711D73
:10149000811D911DA11D20D009F468943F912AE07F
:1014A000269F11243019305D3193DEF6CF01089567
:1014B000462F4770405D4193B3E00FD0C9F7F6CF98
:1014C000462F4F70405D4A3318F0495D31FD405260
:1014D000419302D0A9F7EACFB4E0A69597958795F6
:1014E00077956795BA95C9F70097610571050895D5
:1014F0009B01AC010A2E0694579547953795279581
:10150000BA95C9F7620F731F841F951FA01D089518
:101510002F923F924F925F926F927F928F929F9203
:10152000AF92BF92CF92DF92EF92FF920F931F93F1
:10153000CF93DF93CDB7DEB7CA1BDB0B0FB6F894A2
:10154000DEBF0FBECDBF09942A88398848885F84E2
:101550006E847D848C849B84AA84B984C884DF8053
:10156000EE80FD800C811B81AA81B981CE0FD11D37
:101570000FB6F894DEBF0FBECDBFED010895F8940D
:02158000FFCF9B
:10158200C40900000000A4420000803F2020202562
:101592003032643A253032643A25303264002020F9
:1015A20020253032643A25303264202530326400FE
:1015B20020202053657420416C61726D3A00202016
:1015C20020253032643A253032643A2530326420A4
:1015D20000202020494E56414C49440020202054EE
:1015E200494D450020202045584954494E47002086
:1015F2002020534554555000414C41524D21204129
:101602004C41524D2100202020414C41524D3A4F35
:101612006E00202020414C41524D3A4F6666000038
:00000001FF
